:100000000C9463000C948B000C948B000C948B006C
:100010000C948B000C948B000C948B000C948B0034
:100020000C948B000C948B000C948B000C94180394
:100030000C948B000C948B000C948B000C948B0014
:100040000C94CE020C948B000C948B000C948B00BF
:100050000C948B000C948B000C948B000C948B00F4
:100060000C948B000C948B000A0B0C0D0E0F0001EE
:100070000203040500000008000201000003040759
:100080000000000000000000000000002500280023
:100090002B0000000000240027002A0004040404B0
:1000A0000404040402020202020203030303030322
:1000B00001020408102040800102040810200102FF
:1000C00004081020EF0311241FBECFEFD8E0DEBFDD
:1000D000CDBF11E0A0E0B1E0E6ECFDE002C005908C
:1000E0000D92A630B107D9F721E0A6E0B1E001C03A
:1000F0001D92A639B207E1F710E0C3E6D0E004C0D4
:100100002197FE010E94DB06C236D107C9F70E9483
:1001100045040C94E1060C94000090E0FC01E055CD
:10012000FF4F249184569F4FFC018491882399F0BE
:1001300090E0880F991FFC01EE56FF4FA591B491F6
:10014000FC01E857FF4F859194918FB7F894EC919B
:10015000E22BEC938FBF089590E0FC01EC58FF4F29
:100160002491FC01E055FF4F3491FC01E456FF4F10
:10017000E491EE23C9F0222339F0233001F1A8F4F1
:10018000213019F1223029F1F0E0EE0FFF1FE8577E
:10019000FF4FA591B4918FB7F894EC91611126C0EF
:1001A00030953E233C938FBF08952730A9F0283027
:1001B000C9F0243049F7809180008F7D03C0809181
:1001C00080008F7780938000DFCF84B58F7784BDE8
:1001D000DBCF84B58F7DFBCF8091B0008F7780938C
:1001E000B000D2CF8091B0008F7DF9CF3E2BDACF17
:1001F000682F809157010E94AC0080916E01909110
:100200006F018230910538F0880F991F880F991F70
:1002100005970197F1F7089581E00C94F8003FB736
:10022000F89480914E0190914F01A0915001B091AE
:10023000510126B5A89B05C02F3F19F00196A11DBD
:10024000B11D3FBFBA2FA92F982F8827BC01CD0120
:10025000620F711D811D911D42E0660F771F881F7F
:10026000991F4A95D1F70895DC01EC91EC3090F597
:1002700011968C91119728E830E0281B310987FDF1
:100280003395220F331F220F331F6217730784F039
:1002900012968C9128E532E0281B310987FD3395B1
:1002A000220F331F220F331F621773070CF49B01B9
:1002B00022503109220F331F4FB7F8948E2F90E050
:1002C000FC01EE0FFF1FE80FF91FE85FFE4F3283BE
:1002D00021834FBF08951F93CF93DF93EC01162F17
:1002E00088818C3008F04DC0862F0E948D00888157
:1002F000282F30E0F901EE0FFF1FE20FF31FE85F38
:10030000FE4F1F736081607C612B608319821A82AB
:100310002CE0622F0E94CF06829FB001112430E0B2
:1003200020E0AB01420F531FFA01EE0FFF1FE40F55
:10033000F51FE85FFE4F908196FD16C02F5F3F4F7F
:100340002C30310571F781110FC01092800082E0CE
:10035000809381001092850010928400B19A809160
:100360006F00826080936F00E8818E2F90E0FC0127
:10037000EE0FFF1FE80FF91FE85FFE4F80818064DA
:1003800080838881DF91CF911F9108958EBD0000F9
:100390000DB407FEFDCF8EB50895CF93DF93C1E373
:1003A000D1E06881798183E991E00E9434016A811A
:1003B0007B8180E991E00E9434016C817D818DE830
:1003C00091E00E9434016E817F818AE891E00E9471
:1003D00034016885798587E891E00E9434016A8557
:1003E0007B8584E891E00E9434016C857D8581E8FD
:1003F00091E00E9434016E857F858EE791E00E9436
:100400003401688979898BE791E00E9434016A8917
:100410007B8988E791E00E9434016C897D8985E7BA
:1004200091E00E9434016E897F8982E791E0DF913B
:10043000CF910C943401E1E3F1E08CED95E09183F0
:100440008083938382839583848397838683918734
:100450008087938782879587848797878687918B04
:10046000808B938B828B958B848B978B868B0C9454
:10047000CD010F931F930091590110915A012091C2
:100480005B0130915C0140E052E16AE770E080E09E
:10049000041715072607370740F476956795579593
:1004A00047958F5F8630A1F787E0982F906A9695E1
:1004B000809581709CBD8DBD80E01F910F910C9443
:1004C000F800CF93C82F0E9439028C2F80620E94BF
:1004D000C60180935D01CF910C940C01CF93C82F7E
:1004E0000E9439028C2F0E94C60180935D018FEF1C
:1004F0000E94C601C82F0E940C018C2FCF91089535
:10050000FF920F931F93CF93DF93C82FF62E072FE1
:10051000142F0E9439028C2F80620E94C6018093A2
:100520005D01CF2DD02F115020F089910E94C6017E
:10053000FACFDF91CF911F910F91FF900C940C0196
:100540000E94390280E50E94C60180935D0183E725
:100550000E94C6010C940C01CF93DF93D82FC62FB5
:100560000E9439028D2F80620E94C60180935D0136
:100570008C2F0E94C601DF91CF910C940C016091E9
:10058000670161FD0AC062606093670180E00E94BC
:10059000AC028BE19EE40197F1F708951F920F9250
:1005A0000FB60F9211242F933F938F939F93AF9386
:1005B000BF9380914A0190914B01A0914C01B09161
:1005C0004D013091490123E0230F2D3758F5019655
:1005D000A11DB11D2093490180934A0190934B01C5
:1005E000A0934C01B0934D0180914E0190914F0129
:1005F000A0915001B09151010196A11DB11D8093B0
:100600004E0190934F01A0935001B0935101BF91BF
:10061000AF919F918F913F912F910F900FBE0F90AF
:100620001F90189526E8230F0296A11DB11DD2CF69
:100630001F920F920FB60F9211242F933F934F9357
:100640005F936F937F938F939F93AF93BF93CF935A
:10065000DF93EF93FF9380910601C0910701D0E0F3
:1006600087FF24C0109285001092840080910601BB
:100670008F5F8093060180910601082E000C990B74
:100680008C179D0724F4809106018C30C4F1809171
:10069000840090918500049680349C4908F47AC0C7
:1006A0008091840090918500049676C08091060127
:1006B000082E000C990B8C179D07C4F6E0910601DB
:1006C0008E2FEE0F990BFC01EE0FFF1FE80FF91FA5
:1006D000E85FFE4F808186FFC9CFE09106018E2F33
:1006E000EE0F990BFC01EE0FFF1FE80FF91FE85FFB
:1006F000FE4F808160E08F730E94AC00B7CF2091E5
:10070000840030918500E09106018E2FEE0F990B49
:10071000FC01EE0FFF1FE80FF91FE85FFE4F81811C
:100720009281820F931F9093890080938800E091BB
:1007300006018E2FEE0F990BFC01EE0FFF1FE80F45
:10074000F91FE85FFE4F808186FF11C0E09106012E
:100750008E2FEE0F990BFC01EE0FFF1FE80FF91F14
:10076000E85FFE4F808161E08F730E94AC00FF91D3
:10077000EF91DF91CF91BF91AF919F918F917F9139
:100780006F915F914F913F912F910F900FBE0F90FE
:100790001F90189580E49CE99093890080938800CD
:1007A0008FEF80930601E3CFFC01909107019C300D
:1007B00098F481E0890F809307019083892F90E05E
:1007C000FC01EE0FFF1FE80FF91FE85FFE4F88EBFB
:1007D0009BE09283818308958FEF80830895E3E502
:1007E000F1E087E090E09383828388E090E0958356
:1007F000848380E896E9A8E9B0E086839783A087A0
:10080000B18780E2838781E0848785E0838B158AC6
:1008100085E090E0A0E0B0E0838F948FA58FB68F45
:1008200082E591E091838083168683E991E00E94BE
:10083000D40380E991E00E94D4038DE891E00E9406
:10084000D4038AE891E00E94D40387E891E00E94F3
:10085000D40384E891E00E94D40381E891E00E94EF
:10086000D4038EE791E00E94D4038BE791E00E94CD
:10087000D40388E791E00E94D40385E791E00E94C9
:10088000D40382E791E00C94D403789484B5826019
:1008900084BD84B5816084BD85B5826085BD85B524
:1008A000816085BD80916E00816080936E001092A2
:1008B000810080918100826080938100809181001D
:1008C00081608093810080918000816080938000AE
:1008D0008091B10084608093B1008091B00081600C
:1008E0008093B00080917A00846080937A00809138
:1008F0007A00826080937A0080917A008160809390
:100900007A0080917A00806880937A001092C1000A
:1009100063E170E083E991E00E946B0162E170E0C5
:1009200080E991E00E946B0161E170E08DE891E067
:100930000E946B0160E170E08AE891E00E946B0127
:100940006FE070E087E891E00E946B016EE070E07C
:1009500084E891E00E946B016AE070E081E891E038
:100960000E946B0169E070E08EE791E00E946B01EC
:1009700066E070E08BE791E00E946B0165E070E05B
:1009800088E791E00E946B0164E070E085E791E008
:100990000E946B0163E070E082E791E00E946B01CE
:1009A000CFB7F89480912C01811124C0E6EAF0E0E1
:1009B0008491EAEBF0E09491E82FF0E0EE0FFF1F56
:1009C000EE56FF4FA591B491EC91E92321F461E03B
:1009D0008AE00E94AC008AE00E948D008CB58061A4
:1009E0008CBD8CB580648CBD8DE00E948D008BE049
:1009F0000E948D0080912C018F5F80932C01CFBFCE
:100A000080915501909156018F3F980709F43EC19E
:100A100020915701309158012F3F320709F436C118
:100A20008217930731F00E948D00809157010E9438
:100A30008D00809155019091560120915701309180
:100A400058018217930719F060E00E94AC0081E022
:100A50000E94F8000E940F014B015C0135E0C32E9B
:100A6000D12CE12CF12C0E940F01681979098A0917
:100A70009B09683E734081059105A8F381E0C81A7F
:100A8000D108E108F108E8EE8E0EE3E09E1EA11CFD
:100A9000B11CC114D104E104F10429F76FE584E02D
:100AA0000E94AC0286E00E946E0245E550E060E0E4
:100AB00070E040936A0150936B0160936C017093F6
:100AC0006D01682F677D86E00E94AC0286E00E947F
:100AD0006E028DE10E946E02C82F0E94A0028DE17D
:100AE0000E946E0291E0C81390E090936801882301
:100AF00041F0C81302C00E94A00260E08DE10E9494
:100B0000AC021092600160E08CE10E94AC02109295
:100B10005F016FE381E00E94AC0263E082E00E942B
:100B2000AC0280E280935E01C1E160915E018C2F96
:100B30000E94AC02CF5FC731C1F763E083E00E943F
:100B4000AC0285E0809366016CE40E94AC0260E731
:100B500087E00E94AC0282EE0E94610281EE0E9458
:100B600061026CE080E00E94AC0280E00E946E02B4
:100B7000809367010E94BF02809167018E3009F067
:100B800085C00E941B0260E081E00E94AC0280915F
:100B90006001882351F08DE10E946E02682F6D6F15
:100BA0008DE10E94AC021092600160E084E00E943E
:100BB000AC0286E00E946E02682F676086E00E94A9
:100BC000AC0286E00E946E02877D4BE950E060E057
:100BD00070E040936A0150936B0160936C017093D5
:100BE0006D01682F606286E00E94AC0286E00E9480
:100BF0006E0288E180935E01C1E160915E018C2FFD
:100C00000E94AC02CF5FC731C1F70E94BF02609162
:100C1000670161606093670180E00E94AC0260E759
:100C200087E00E94AC02809155019091560120917D
:100C30005701309158018217930719F061E00E9423
:100C4000AC0080916101882309F44FC04091660196
:100C500061E671E08AE00E948002E9E6F0E08491BA
:100C60004091660160E071E00E94800282E00E9493
:100C70006E02EFE6F0E0E49161E070E001C0660F23
:100C8000EA95EAF7682B82E00E94AC0200E010E0EF
:100C90008FEF0E94610280915D0190E095958795AC
:100CA00087708630A8F580915F01C0E0D8E181119E
:100CB00007C0C0915E01DC2FC93108F0D8E1CD1B1F
:100CC0000E94390281E60E94C60180935D0181E3A2
:100CD000E82E81E0F82ED15008F43FC08FEF0E943B
:100CE000C601F70181937F01F6CF82E00E946E0278
:100CF000EEE6F0E0E49121E030E001C0220FEA9559
:100D0000EAF72095622F682382E00E94AC02A5CF0B
:100D10002FB7F89480914A0190914B01A0914C011A
:100D2000B0914D012FBF40912D0150912E01609146
:100D30002F0170913001841B950BA60BB70B8B3FD5
:100D40009105A105B10510F00E941B0201151105C6
:100D500009F49ECF0E9400009BCFC15020F08FEF7E
:100D60000E94C601FACF0E940C0160E487E00E9455
:100D7000AC022FB7F89480914A0190914B01A09159
:100D80004C01B0914D012FBF80932D0190932E0106
:100D9000A0932F01B09330010E94CD0179CF991B10
:100DA00079E004C0991F961708F0961B881F7A9562
:100DB000C9F780950895EE0FFF1F0590F491E02D7F
:060DC0000994F894FFCF36
:060DC60052435359530093
:00000001FF
